{
  "contractName": "MyDisk",
  "abi": [
    {
      "inputs": [
        {
          "internalType": "string",
          "name": "filename",
          "type": "string"
        },
        {
          "internalType": "string",
          "name": "cid",
          "type": "string"
        }
      ],
      "name": "saveCid",
      "outputs": [],
      "stateMutability": "nonpayable",
      "type": "function"
    },
    {
      "inputs": [
        {
          "internalType": "string",
          "name": "filename",
          "type": "string"
        }
      ],
      "name": "getCid",
      "outputs": [
        {
          "internalType": "string",
          "name": "",
          "type": "string"
        }
      ],
      "stateMutability": "view",
      "type": "function",
      "constant": true
    }
  ],
  "bytecode": "0x608060405234801561001057600080fd5b50610539806100206000396000f3fe608060405234801561001057600080fd5b50600436106100365760003560e01c8063140f53521461003b57806333e17c6014610057575b600080fd5b6100556004803603810190610050919061031a565b610087565b005b610071600480360381019061006c91906102d5565b6100f9565b60405161007e9190610406565b60405180910390f35b81816000803373ffffffffffffffffffffffffffffffffffffffff1673ffffffffffffffffffffffffffffffffffffffff16815260200190815260200160002086866040516100d79291906103ed565b908152602001604051809103902091906100f29291906101e8565b5050505050565b60606000803373ffffffffffffffffffffffffffffffffffffffff1673ffffffffffffffffffffffffffffffffffffffff16815260200190815260200160002083836040516101499291906103ed565b9081526020016040518091039020805461016290610491565b80601f016020809104026020016040519081016040528092919081815260200182805461018e90610491565b80156101db5780601f106101b0576101008083540402835291602001916101db565b820191906000526020600020905b8154815290600101906020018083116101be57829003601f168201915b5050505050905092915050565b8280546101f490610491565b90600052602060002090601f016020900481019282610216576000855561025d565b82601f1061022f57803560ff191683800117855561025d565b8280016001018555821561025d579182015b8281111561025c578235825591602001919060010190610241565b5b50905061026a919061026e565b5090565b5b8082111561028757600081600090555060010161026f565b5090565b60008083601f84011261029d57600080fd5b8235905067ffffffffffffffff8111156102b657600080fd5b6020830191508360018202830111156102ce57600080fd5b9250929050565b600080602083850312156102e857600080fd5b600083013567ffffffffffffffff81111561030257600080fd5b61030e8582860161028b565b92509250509250929050565b6000806000806040858703121561033057600080fd5b600085013567ffffffffffffffff81111561034a57600080fd5b6103568782880161028b565b9450945050602085013567ffffffffffffffff81111561037557600080fd5b6103818782880161028b565b925092505092959194509250565b600061039b8385610444565b93506103a883858461044f565b82840190509392505050565b60006103bf82610428565b6103c98185610433565b93506103d981856020860161045e565b6103e2816104f2565b840191505092915050565b60006103fa82848661038f565b91508190509392505050565b6000602082019050818103600083015261042081846103b4565b905092915050565b600081519050919050565b600082825260208201905092915050565b600081905092915050565b82818337600083830152505050565b60005b8381101561047c578082015181840152602081019050610461565b8381111561048b576000848401525b50505050565b600060028204905060018216806104a957607f821691505b602082108114156104bd576104bc6104c3565b5b50919050565b7f4e487b7100000000000000000000000000000000000000000000000000000000600052602260045260246000fd5b6000601f19601f830116905091905056fea2646970667358221220a90bb85f58eb7204cef0d2dd067e3290399b5532152cf6a540f29921e7dbda2364736f6c63430008010033",
  "immutableReferences": {},
  "source": "// SPDX-License-Identifier: MIT\r\n\r\n\r\n\r\npragma solidity ^0.8.1;\r\n\r\ncontract MyDisk {\r\n    mapping(address=>mapping(string=>string)) disk;\r\n\r\n    function saveCid(string calldata filename, string calldata cid) public{\r\n        disk[msg.sender][filename] = cid;\r\n    }\r\n\r\n    function getCid(string calldata filename) public view returns(string memory){\r\n        return disk[msg.sender][filename];\r\n    }\r\n\r\n}",
  "sourcePath": "C:/Users/Caleb/Desktop/school/pattern/lab/ipfs-ethers/contracts/MyDisk.sol",
  "compiler": {
    "name": "solc",
    "version": "0.8.1+commit.df193b15.Emscripten.clang"
  },
  "schemaVersion": "3.4.1",
  "updatedAt": "2021-06-11T02:40:05.698Z",
  "networkType": "ethereum",
  "devdoc": {
    "kind": "dev",
    "methods": {},
    "version": 1
  },
  "userdoc": {
    "kind": "user",
    "methods": {},
    "version": 1
  }
}